:100000000C9455000C946C000C946C000C946C00D7
:100010000C946C000C946C000C946C000C946C00B0
:100020000C946C000C946C000C946C000C946C00A0
:100030000C946C000C946C000C946C000C946C0090
:100040000C946C000C946C000C946C000C946C0080
:100050000C946C000C946C000C946C000C946C0070
:100060000C946C000C946C000C946C000C946C0060
:100070000C946C000C946C000C946C000C946C0050
:100080000C946C000C946C000C946C009300930026
:1000900096009600990099009C009C009C009F008F
:1000A0009F009F00A200A200A20011241FBECFEF5C
:1000B000D0E4DEBFCDBF11E0A0E0B1E0E6E6F1E0C4
:1000C00000E00BBF02C007900D92AE30B107D9F728
:1000D0000E947F000C94B1000C940000CF93C82FB5
:1000E0008A3019F48DE00E946E008091C00085FF77
:1000F000FCCFC093C60080E090E0CF91089511B886
:100100008FEF82B987B918B880B18095E82FEF706A
:100110008E2F90E0FC013197EF30F105B0F4EA5BEF
:10012000FF4F0C94A80080E688B9EECF80E788B92D
:10013000EBCF88E388B9E8CF8CE388B9E5CF8EE3CD
:1001400088B9E2CF8FE388B9DFCF80E488B9DCCF0C
:10015000EE0FFF1F0024001C0BBE0790F691E02D50
:060160000994F894FFCFA2
:0E01660000000002000000006E00000000001B
:00000001FF
